{
	"data": {
		"bytecode": {
			"linkReferences": {},
			"object": "60806040526040518060400160405280600b81526020017f52656e7420612062696b650000000000000000000000000000000000000000008152506000908051906020019061004f92919061010b565b50600060015560646002556002600355600160045560016005556103e8600655618aeb600755633b9aca00600855600c600955610200600a55610400600b55610800600c556001601160006101000a81548160ff0219169083151502179055506001601160016101000a81548160ff0219169083151502179055506001601160026101000a81548160ff02191690831515021790555060026012556007601355600c601455600060155534801561010557600080fd5b5061020f565b828054610117906101dd565b90600052602060002090601f0160209004810192826101395760008555610180565b82601f1061015257805160ff1916838001178555610180565b82800160010185558215610180579182015b8281111561017f578251825591602001919060010190610164565b5b50905061018d9190610191565b5090565b5b808211156101aa576000816000905550600101610192565b5090565b7f4e487b7100000000000000000000000000000000000000000000000000000000600052602260045260246000fd5b600060028204905060018216806101f557607f821691505b60208210811415610209576102086101ae565b5b50919050565b6109598061021e6000396000f3fe6080604052600436106100a75760003560e01c80637467579b116100645780637467579b1461019f578063c3a249bc146101ca578063e7c8b9e1146101f5578063ec571cec14610220578063f4d992f01461024b578063fba785a514610255576100a7565b806306ce6195146100ac5780630bf9a6f2146100d75780632c4b965214610102578063399b22a81461010c578063451e04a1146101375780634ccd26ab14610162575b600080fd5b3480156100b857600080fd5b506100c1610280565b6040516100ce9190610737565b60405180910390f35b3480156100e357600080fd5b506100ec61028a565b6040516100f99190610737565b60405180910390f35b61010a610294565b005b34801561011857600080fd5b50610121610319565b60405161012e9190610737565b60405180910390f35b34801561014357600080fd5b5061014c610323565b6040516101599190610737565b60405180910390f35b34801561016e57600080fd5b5061018960048036038101906101849190610783565b61032d565b6040516101969190610737565b60405180910390f35b3480156101ab57600080fd5b506101b4610376565b6040516101c19190610737565b60405180910390f35b3480156101d657600080fd5b506101df610380565b6040516101ec9190610737565b60405180910390f35b34801561020157600080fd5b5061020a61038a565b6040516102179190610737565b60405180910390f35b34801561022c57600080fd5b50610235610394565b6040516102429190610737565b60405180910390f35b61025361039e565b005b34801561026157600080fd5b5061026a61068a565b6040516102779190610737565b60405180910390f35b6000600b54905090565b6000600854905090565b6000600554600f546102a691906107df565b905080600660008282546102ba91906107df565b925050819055506102cc600554610694565b6010546102d99190610813565b60108190555080601060008282546102f19190610813565b9250508190555061030360055461069e565b60095461031091906107df565b60098190555050565b6000600c54905090565b6000600f54905090565b600080610339836106a8565b9050826007600082825461034d9190610813565b92505081905550806006600082825461036691906107df565b9250508190555080915050919050565b6000600a54905090565b6000600954905090565b6000601054905090565b6000600754905090565b6103b66103e8600e546103b19190610898565b61069e565b6010546103c391906107df565b6010819055506103e8600e546103d99190610898565b6010546103e691906107df565b6010819055506103e8600e546103fc9190610898565b6008600082825461040d9190610813565b925050819055506015546010600082825461042891906107df565b925050819055506003546010600082825461044391906107df565b9250508190555060035460015461045a9190610813565b600181905550601354600b60008282546104749190610813565b92505081905550600c54600c600082825461048f9190610813565b9250508190555060011515601160019054906101000a900460ff16151514156105f15760026103e8600e546104c49190610898565b6104ce91906108c9565b60155410156105965760026103e8600e546104e99190610898565b6104f391906108c9565b600160008282546105049190610813565b9250508190555060026103e8600e5461051d9190610898565b61052791906108c9565b6010600082825461053891906107df565b925050819055506105576103e8600e546105529190610898565b610694565b6009546105649190610813565b6009819055506105826103e8600e5461057d9190610898565b610694565b600a5461058f91906107df565b600a819055505b600060045411156105ec576004546010546105b191906107df565b6010819055506004546001546105c79190610813565b6001819055506105d8600454610694565b6009546105e591906107df565b6009819055505b610652565b6004546103e8600e546106049190610898565b60105461061191906107df565b61061b91906107df565b6010819055506004546103e8600e546106349190610898565b6006546106419190610813565b61064b9190610813565b6006819055505b601054600760008282546106669190610813565b925050819055506010546010600082825461068191906107df565b92505081905550565b6000600654905090565b6000819050919050565b6000819050919050565b6000600354826106b89190610813565b600e8190555060006103e8600e546106d09190610898565b905060006103e8600e546106e49190610898565b90506004548183600e546106f89190610813565b6107029190610813565b61070c9190610813565b600f81905550600f5492505050919050565b6000819050919050565b6107318161071e565b82525050565b600060208201905061074c6000830184610728565b92915050565b600080fd5b6107608161071e565b811461076b57600080fd5b50565b60008135905061077d81610757565b92915050565b60006020828403121561079957610798610752565b5b60006107a78482850161076e565b91505092915050565b7f4e487b7100000000000000000000000000000000000000000000000000000000600052601160045260246000fd5b60006107ea8261071e565b91506107f58361071e565b925082821015610808576108076107b0565b5b828203905092915050565b600061081e8261071e565b91506108298361071e565b9250827fffffffffffffffffffffffffffffffffffffffffffffffffffffffffffffffff0382111561085e5761085d6107b0565b5b828201905092915050565b7f4e487b7100000000000000000000000000000000000000000000000000000000600052601260045260246000fd5b60006108a38261071e565b91506108ae8361071e565b9250826108be576108bd610869565b5b828204905092915050565b60006108d48261071e565b91506108df8361071e565b9250817fffffffffffffffffffffffffffffffffffffffffffffffffffffffffffffffff0483118215151615610918576109176107b0565b5b82820290509291505056fea26469706673582212202ced97fc0a59d7fc49fb1c421ec2ab65962c9724dd152a32aac956c40958366e64736f6c634300080b0033",
			"opcodes": "PUSH1 0x80 PUSH1 0x40 MSTORE PUSH1 0x40 MLOAD DUP1 PUSH1 0x40 ADD PUSH1 0x40 MSTORE DUP1 PUSH1 0xB DUP2 MSTORE PUSH1 0x20 ADD PUSH32 0x52656E7420612062696B65000000000000000000000000000000000000000000 DUP2 MSTORE POP PUSH1 0x0 SWAP1 DUP1 MLOAD SWAP1 PUSH1 0x20 ADD SWAP1 PUSH2 0x4F SWAP3 SWAP2 SWAP1 PUSH2 0x10B JUMP JUMPDEST POP PUSH1 0x0 PUSH1 0x1 SSTORE PUSH1 0x64 PUSH1 0x2 SSTORE PUSH1 0x2 PUSH1 0x3 SSTORE PUSH1 0x1 PUSH1 0x4 SSTORE PUSH1 0x1 PUSH1 0x5 SSTORE PUSH2 0x3E8 PUSH1 0x6 SSTORE PUSH2 0x8AEB PUSH1 0x7 SSTORE PUSH4 0x3B9ACA00 PUSH1 0x8 SSTORE PUSH1 0xC PUSH1 0x9 SSTORE PUSH2 0x200 PUSH1 0xA SSTORE PUSH2 0x400 PUSH1 0xB SSTORE PUSH2 0x800 PUSH1 0xC SSTORE PUSH1 0x1 PUSH1 0x11 PUSH1 0x0 PUSH2 0x100 EXP DUP2 SLOAD DUP2 PUSH1 0xFF MUL NOT AND SWAP1 DUP4 ISZERO ISZERO MUL OR SWAP1 SSTORE POP PUSH1 0x1 PUSH1 0x11 PUSH1 0x1 PUSH2 0x100 EXP DUP2 SLOAD DUP2 PUSH1 0xFF MUL NOT AND SWAP1 DUP4 ISZERO ISZERO MUL OR SWAP1 SSTORE POP PUSH1 0x1 PUSH1 0x11 PUSH1 0x2 PUSH2 0x100 EXP DUP2 SLOAD DUP2 PUSH1 0xFF MUL NOT AND SWAP1 DUP4 ISZERO ISZERO MUL OR SWAP1 SSTORE POP PUSH1 0x2 PUSH1 0x12 SSTORE PUSH1 0x7 PUSH1 0x13 SSTORE PUSH1 0xC PUSH1 0x14 SSTORE PUSH1 0x0 PUSH1 0x15 SSTORE CALLVALUE DUP1 ISZERO PUSH2 0x105 JUMPI PUSH1 0x0 DUP1 REVERT JUMPDEST POP PUSH2 0x20F JUMP JUMPDEST DUP3 DUP1 SLOAD PUSH2 0x117 SWAP1 PUSH2 0x1DD JUMP JUMPDEST SWAP1 PUSH1 0x0 MSTORE PUSH1 0x20 PUSH1 0x0 KECCAK256 SWAP1 PUSH1 0x1F ADD PUSH1 0x20 SWAP1 DIV DUP2 ADD SWAP3 DUP3 PUSH2 0x139 JUMPI PUSH1 0x0 DUP6 SSTORE PUSH2 0x180 JUMP JUMPDEST DUP3 PUSH1 0x1F LT PUSH2 0x152 JUMPI DUP1 MLOAD PUSH1 0xFF NOT AND DUP4 DUP1 ADD OR DUP6 SSTORE PUSH2 0x180 JUMP JUMPDEST DUP3 DUP1 ADD PUSH1 0x1 ADD DUP6 SSTORE DUP3 ISZERO PUSH2 0x180 JUMPI SWAP2 DUP3 ADD JUMPDEST DUP3 DUP2 GT ISZERO PUSH2 0x17F JUMPI DUP3 MLOAD DUP3 SSTORE SWAP2 PUSH1 0x20 ADD SWAP2 SWAP1 PUSH1 0x1 ADD SWAP1 PUSH2 0x164 JUMP JUMPDEST JUMPDEST POP SWAP1 POP PUSH2 0x18D SWAP2 SWAP1 PUSH2 0x191 JUMP JUMPDEST POP SWAP1 JUMP JUMPDEST JUMPDEST DUP1 DUP3 GT ISZERO PUSH2 0x1AA JUMPI PUSH1 0x0 DUP2 PUSH1 0x0 SWAP1 SSTORE POP PUSH1 0x1 ADD PUSH2 0x192 JUMP JUMPDEST POP SWAP1 JUMP JUMPDEST PUSH32 0x4E487B7100000000000000000000000000000000000000000000000000000000 PUSH1 0x0 MSTORE PUSH1 0x22 PUSH1 0x4 MSTORE PUSH1 0x24 PUSH1 0x0 REVERT JUMPDEST PUSH1 0x0 PUSH1 0x2 DUP3 DIV SWAP1 POP PUSH1 0x1 DUP3 AND DUP1 PUSH2 0x1F5 JUMPI PUSH1 0x7F DUP3 AND SWAP2 POP JUMPDEST PUSH1 0x20 DUP3 LT DUP2 EQ ISZERO PUSH2 0x209 JUMPI PUSH2 0x208 PUSH2 0x1AE JUMP JUMPDEST JUMPDEST POP SWAP2 SWAP1 POP JUMP JUMPDEST PUSH2 0x959 DUP1 PUSH2 0x21E PUSH1 0x0 CODECOPY PUSH1 0x0 RETURN INVALID PUSH1 0x80 PUSH1 0x40 MSTORE PUSH1 0x4 CALLDATASIZE LT PUSH2 0xA7 JUMPI PUSH1 0x0 CALLDATALOAD PUSH1 0xE0 SHR DUP1 PUSH4 0x7467579B GT PUSH2 0x64 JUMPI DUP1 PUSH4 0x7467579B EQ PUSH2 0x19F JUMPI DUP1 PUSH4 0xC3A249BC EQ PUSH2 0x1CA JUMPI DUP1 PUSH4 0xE7C8B9E1 EQ PUSH2 0x1F5 JUMPI DUP1 PUSH4 0xEC571CEC EQ PUSH2 0x220 JUMPI DUP1 PUSH4 0xF4D992F0 EQ PUSH2 0x24B JUMPI DUP1 PUSH4 0xFBA785A5 EQ PUSH2 0x255 JUMPI PUSH2 0xA7 JUMP JUMPDEST DUP1 PUSH4 0x6CE6195 EQ PUSH2 0xAC JUMPI DUP1 PUSH4 0xBF9A6F2 EQ PUSH2 0xD7 JUMPI DUP1 PUSH4 0x2C4B9652 EQ PUSH2 0x102 JUMPI DUP1 PUSH4 0x399B22A8 EQ PUSH2 0x10C JUMPI DUP1 PUSH4 0x451E04A1 EQ PUSH2 0x137 JUMPI DUP1 PUSH4 0x4CCD26AB EQ PUSH2 0x162 JUMPI JUMPDEST PUSH1 0x0 DUP1 REVERT JUMPDEST CALLVALUE DUP1 ISZERO PUSH2 0xB8 JUMPI PUSH1 0x0 DUP1 REVERT JUMPDEST POP PUSH2 0xC1 PUSH2 0x280 JUMP JUMPDEST PUSH1 0x40 MLOAD PUSH2 0xCE SWAP2 SWAP1 PUSH2 0x737 JUMP JUMPDEST PUSH1 0x40 MLOAD DUP1 SWAP2 SUB SWAP1 RETURN JUMPDEST CALLVALUE DUP1 ISZERO PUSH2 0xE3 JUMPI PUSH1 0x0 DUP1 REVERT JUMPDEST POP PUSH2 0xEC PUSH2 0x28A JUMP JUMPDEST PUSH1 0x40 MLOAD PUSH2 0xF9 SWAP2 SWAP1 PUSH2 0x737 JUMP JUMPDEST PUSH1 0x40 MLOAD DUP1 SWAP2 SUB SWAP1 RETURN JUMPDEST PUSH2 0x10A PUSH2 0x294 JUMP JUMPDEST STOP JUMPDEST CALLVALUE DUP1 ISZERO PUSH2 0x118 JUMPI PUSH1 0x0 DUP1 REVERT JUMPDEST POP PUSH2 0x121 PUSH2 0x319 JUMP JUMPDEST PUSH1 0x40 MLOAD PUSH2 0x12E SWAP2 SWAP1 PUSH2 0x737 JUMP JUMPDEST PUSH1 0x40 MLOAD DUP1 SWAP2 SUB SWAP1 RETURN JUMPDEST CALLVALUE DUP1 ISZERO PUSH2 0x143 JUMPI PUSH1 0x0 DUP1 REVERT JUMPDEST POP PUSH2 0x14C PUSH2 0x323 JUMP JUMPDEST PUSH1 0x40 MLOAD PUSH2 0x159 SWAP2 SWAP1 PUSH2 0x737 JUMP JUMPDEST PUSH1 0x40 MLOAD DUP1 SWAP2 SUB SWAP1 RETURN JUMPDEST CALLVALUE DUP1 ISZERO PUSH2 0x16E JUMPI PUSH1 0x0 DUP1 REVERT JUMPDEST POP PUSH2 0x189 PUSH1 0x4 DUP1 CALLDATASIZE SUB DUP2 ADD SWAP1 PUSH2 0x184 SWAP2 SWAP1 PUSH2 0x783 JUMP JUMPDEST PUSH2 0x32D JUMP JUMPDEST PUSH1 0x40 MLOAD PUSH2 0x196 SWAP2 SWAP1 PUSH2 0x737 JUMP JUMPDEST PUSH1 0x40 MLOAD DUP1 SWAP2 SUB SWAP1 RETURN JUMPDEST CALLVALUE DUP1 ISZERO PUSH2 0x1AB JUMPI PUSH1 0x0 DUP1 REVERT JUMPDEST POP PUSH2 0x1B4 PUSH2 0x376 JUMP JUMPDEST PUSH1 0x40 MLOAD PUSH2 0x1C1 SWAP2 SWAP1 PUSH2 0x737 JUMP JUMPDEST PUSH1 0x40 MLOAD DUP1 SWAP2 SUB SWAP1 RETURN JUMPDEST CALLVALUE DUP1 ISZERO PUSH2 0x1D6 JUMPI PUSH1 0x0 DUP1 REVERT JUMPDEST POP PUSH2 0x1DF PUSH2 0x380 JUMP JUMPDEST PUSH1 0x40 MLOAD PUSH2 0x1EC SWAP2 SWAP1 PUSH2 0x737 JUMP JUMPDEST PUSH1 0x40 MLOAD DUP1 SWAP2 SUB SWAP1 RETURN JUMPDEST CALLVALUE DUP1 ISZERO PUSH2 0x201 JUMPI PUSH1 0x0 DUP1 REVERT JUMPDEST POP PUSH2 0x20A PUSH2 0x38A JUMP JUMPDEST PUSH1 0x40 MLOAD PUSH2 0x217 SWAP2 SWAP1 PUSH2 0x737 JUMP JUMPDEST PUSH1 0x40 MLOAD DUP1 SWAP2 SUB SWAP1 RETURN JUMPDEST CALLVALUE DUP1 ISZERO PUSH2 0x22C JUMPI PUSH1 0x0 DUP1 REVERT JUMPDEST POP PUSH2 0x235 PUSH2 0x394 JUMP JUMPDEST PUSH1 0x40 MLOAD PUSH2 0x242 SWAP2 SWAP1 PUSH2 0x737 JUMP JUMPDEST PUSH1 0x40 MLOAD DUP1 SWAP2 SUB SWAP1 RETURN JUMPDEST PUSH2 0x253 PUSH2 0x39E JUMP JUMPDEST STOP JUMPDEST CALLVALUE DUP1 ISZERO PUSH2 0x261 JUMPI PUSH1 0x0 DUP1 REVERT JUMPDEST POP PUSH2 0x26A PUSH2 0x68A JUMP JUMPDEST PUSH1 0x40 MLOAD PUSH2 0x277 SWAP2 SWAP1 PUSH2 0x737 JUMP JUMPDEST PUSH1 0x40 MLOAD DUP1 SWAP2 SUB SWAP1 RETURN JUMPDEST PUSH1 0x0 PUSH1 0xB SLOAD SWAP1 POP SWAP1 JUMP JUMPDEST PUSH1 0x0 PUSH1 0x8 SLOAD SWAP1 POP SWAP1 JUMP JUMPDEST PUSH1 0x0 PUSH1 0x5 SLOAD PUSH1 0xF SLOAD PUSH2 0x2A6 SWAP2 SWAP1 PUSH2 0x7DF JUMP JUMPDEST SWAP1 POP DUP1 PUSH1 0x6 PUSH1 0x0 DUP3 DUP3 SLOAD PUSH2 0x2BA SWAP2 SWAP1 PUSH2 0x7DF JUMP JUMPDEST SWAP3 POP POP DUP2 SWAP1 SSTORE POP PUSH2 0x2CC PUSH1 0x5 SLOAD PUSH2 0x694 JUMP JUMPDEST PUSH1 0x10 SLOAD PUSH2 0x2D9 SWAP2 SWAP1 PUSH2 0x813 JUMP JUMPDEST PUSH1 0x10 DUP2 SWAP1 SSTORE POP DUP1 PUSH1 0x10 PUSH1 0x0 DUP3 DUP3 SLOAD PUSH2 0x2F1 SWAP2 SWAP1 PUSH2 0x813 JUMP JUMPDEST SWAP3 POP POP DUP2 SWAP1 SSTORE POP PUSH2 0x303 PUSH1 0x5 SLOAD PUSH2 0x69E JUMP JUMPDEST PUSH1 0x9 SLOAD PUSH2 0x310 SWAP2 SWAP1 PUSH2 0x7DF JUMP JUMPDEST PUSH1 0x9 DUP2 SWAP1 SSTORE POP POP JUMP JUMPDEST PUSH1 0x0 PUSH1 0xC SLOAD SWAP1 POP SWAP1 JUMP JUMPDEST PUSH1 0x0 PUSH1 0xF SLOAD SWAP1 POP SWAP1 JUMP JUMPDEST PUSH1 0x0 DUP1 PUSH2 0x339 DUP4 PUSH2 0x6A8 JUMP JUMPDEST SWAP1 POP DUP3 PUSH1 0x7 PUSH1 0x0 DUP3 DUP3 SLOAD PUSH2 0x34D SWAP2 SWAP1 PUSH2 0x813 JUMP JUMPDEST SWAP3 POP POP DUP2 SWAP1 SSTORE POP DUP1 PUSH1 0x6 PUSH1 0x0 DUP3 DUP3 SLOAD PUSH2 0x366 SWAP2 SWAP1 PUSH2 0x7DF JUMP JUMPDEST SWAP3 POP POP DUP2 SWAP1 SSTORE POP DUP1 SWAP2 POP POP SWAP2 SWAP1 POP JUMP JUMPDEST PUSH1 0x0 PUSH1 0xA SLOAD SWAP1 POP SWAP1 JUMP JUMPDEST PUSH1 0x0 PUSH1 0x9 SLOAD SWAP1 POP SWAP1 JUMP JUMPDEST PUSH1 0x0 PUSH1 0x10 SLOAD SWAP1 POP SWAP1 JUMP JUMPDEST PUSH1 0x0 PUSH1 0x7 SLOAD SWAP1 POP SWAP1 JUMP JUMPDEST PUSH2 0x3B6 PUSH2 0x3E8 PUSH1 0xE SLOAD PUSH2 0x3B1 SWAP2 SWAP1 PUSH2 0x898 JUMP JUMPDEST PUSH2 0x69E JUMP JUMPDEST PUSH1 0x10 SLOAD PUSH2 0x3C3 SWAP2 SWAP1 PUSH2 0x7DF JUMP JUMPDEST PUSH1 0x10 DUP2 SWAP1 SSTORE POP PUSH2 0x3E8 PUSH1 0xE SLOAD PUSH2 0x3D9 SWAP2 SWAP1 PUSH2 0x898 JUMP JUMPDEST PUSH1 0x10 SLOAD PUSH2 0x3E6 SWAP2 SWAP1 PUSH2 0x7DF JUMP JUMPDEST PUSH1 0x10 DUP2 SWAP1 SSTORE POP PUSH2 0x3E8 PUSH1 0xE SLOAD PUSH2 0x3FC SWAP2 SWAP1 PUSH2 0x898 JUMP JUMPDEST PUSH1 0x8 PUSH1 0x0 DUP3 DUP3 SLOAD PUSH2 0x40D SWAP2 SWAP1 PUSH2 0x813 JUMP JUMPDEST SWAP3 POP POP DUP2 SWAP1 SSTORE POP PUSH1 0x15 SLOAD PUSH1 0x10 PUSH1 0x0 DUP3 DUP3 SLOAD PUSH2 0x428 SWAP2 SWAP1 PUSH2 0x7DF JUMP JUMPDEST SWAP3 POP POP DUP2 SWAP1 SSTORE POP PUSH1 0x3 SLOAD PUSH1 0x10 PUSH1 0x0 DUP3 DUP3 SLOAD PUSH2 0x443 SWAP2 SWAP1 PUSH2 0x7DF JUMP JUMPDEST SWAP3 POP POP DUP2 SWAP1 SSTORE POP PUSH1 0x3 SLOAD PUSH1 0x1 SLOAD PUSH2 0x45A SWAP2 SWAP1 PUSH2 0x813 JUMP JUMPDEST PUSH1 0x1 DUP2 SWAP1 SSTORE POP PUSH1 0x13 SLOAD PUSH1 0xB PUSH1 0x0 DUP3 DUP3 SLOAD PUSH2 0x474 SWAP2 SWAP1 PUSH2 0x813 JUMP JUMPDEST SWAP3 POP POP DUP2 SWAP1 SSTORE POP PUSH1 0xC SLOAD PUSH1 0xC PUSH1 0x0 DUP3 DUP3 SLOAD PUSH2 0x48F SWAP2 SWAP1 PUSH2 0x813 JUMP JUMPDEST SWAP3 POP POP DUP2 SWAP1 SSTORE POP PUSH1 0x1 ISZERO ISZERO PUSH1 0x11 PUSH1 0x1 SWAP1 SLOAD SWAP1 PUSH2 0x100 EXP SWAP1 DIV PUSH1 0xFF AND ISZERO ISZERO EQ ISZERO PUSH2 0x5F1 JUMPI PUSH1 0x2 PUSH2 0x3E8 PUSH1 0xE SLOAD PUSH2 0x4C4 SWAP2 SWAP1 PUSH2 0x898 JUMP JUMPDEST PUSH2 0x4CE SWAP2 SWAP1 PUSH2 0x8C9 JUMP JUMPDEST PUSH1 0x15 SLOAD LT ISZERO PUSH2 0x596 JUMPI PUSH1 0x2 PUSH2 0x3E8 PUSH1 0xE SLOAD PUSH2 0x4E9 SWAP2 SWAP1 PUSH2 0x898 JUMP JUMPDEST PUSH2 0x4F3 SWAP2 SWAP1 PUSH2 0x8C9 JUMP JUMPDEST PUSH1 0x1 PUSH1 0x0 DUP3 DUP3 SLOAD PUSH2 0x504 SWAP2 SWAP1 PUSH2 0x813 JUMP JUMPDEST SWAP3 POP POP DUP2 SWAP1 SSTORE POP PUSH1 0x2 PUSH2 0x3E8 PUSH1 0xE SLOAD PUSH2 0x51D SWAP2 SWAP1 PUSH2 0x898 JUMP JUMPDEST PUSH2 0x527 SWAP2 SWAP1 PUSH2 0x8C9 JUMP JUMPDEST PUSH1 0x10 PUSH1 0x0 DUP3 DUP3 SLOAD PUSH2 0x538 SWAP2 SWAP1 PUSH2 0x7DF JUMP JUMPDEST SWAP3 POP POP DUP2 SWAP1 SSTORE POP PUSH2 0x557 PUSH2 0x3E8 PUSH1 0xE SLOAD PUSH2 0x552 SWAP2 SWAP1 PUSH2 0x898 JUMP JUMPDEST PUSH2 0x694 JUMP JUMPDEST PUSH1 0x9 SLOAD PUSH2 0x564 SWAP2 SWAP1 PUSH2 0x813 JUMP JUMPDEST PUSH1 0x9 DUP2 SWAP1 SSTORE POP PUSH2 0x582 PUSH2 0x3E8 PUSH1 0xE SLOAD PUSH2 0x57D SWAP2 SWAP1 PUSH2 0x898 JUMP JUMPDEST PUSH2 0x694 JUMP JUMPDEST PUSH1 0xA SLOAD PUSH2 0x58F SWAP2 SWAP1 PUSH2 0x7DF JUMP JUMPDEST PUSH1 0xA DUP2 SWAP1 SSTORE POP JUMPDEST PUSH1 0x0 PUSH1 0x4 SLOAD GT ISZERO PUSH2 0x5EC JUMPI PUSH1 0x4 SLOAD PUSH1 0x10 SLOAD PUSH2 0x5B1 SWAP2 SWAP1 PUSH2 0x7DF JUMP JUMPDEST PUSH1 0x10 DUP2 SWAP1 SSTORE POP PUSH1 0x4 SLOAD PUSH1 0x1 SLOAD PUSH2 0x5C7 SWAP2 SWAP1 PUSH2 0x813 JUMP JUMPDEST PUSH1 0x1 DUP2 SWAP1 SSTORE POP PUSH2 0x5D8 PUSH1 0x4 SLOAD PUSH2 0x694 JUMP JUMPDEST PUSH1 0x9 SLOAD PUSH2 0x5E5 SWAP2 SWAP1 PUSH2 0x7DF JUMP JUMPDEST PUSH1 0x9 DUP2 SWAP1 SSTORE POP JUMPDEST PUSH2 0x652 JUMP JUMPDEST PUSH1 0x4 SLOAD PUSH2 0x3E8 PUSH1 0xE SLOAD PUSH2 0x604 SWAP2 SWAP1 PUSH2 0x898 JUMP JUMPDEST PUSH1 0x10 SLOAD PUSH2 0x611 SWAP2 SWAP1 PUSH2 0x7DF JUMP JUMPDEST PUSH2 0x61B SWAP2 SWAP1 PUSH2 0x7DF JUMP JUMPDEST PUSH1 0x10 DUP2 SWAP1 SSTORE POP PUSH1 0x4 SLOAD PUSH2 0x3E8 PUSH1 0xE SLOAD PUSH2 0x634 SWAP2 SWAP1 PUSH2 0x898 JUMP JUMPDEST PUSH1 0x6 SLOAD PUSH2 0x641 SWAP2 SWAP1 PUSH2 0x813 JUMP JUMPDEST PUSH2 0x64B SWAP2 SWAP1 PUSH2 0x813 JUMP JUMPDEST PUSH1 0x6 DUP2 SWAP1 SSTORE POP JUMPDEST PUSH1 0x10 SLOAD PUSH1 0x7 PUSH1 0x0 DUP3 DUP3 SLOAD PUSH2 0x666 SWAP2 SWAP1 PUSH2 0x813 JUMP JUMPDEST SWAP3 POP POP DUP2 SWAP1 SSTORE POP PUSH1 0x10 SLOAD PUSH1 0x10 PUSH1 0x0 DUP3 DUP3 SLOAD PUSH2 0x681 SWAP2 SWAP1 PUSH2 0x7DF JUMP JUMPDEST SWAP3 POP POP DUP2 SWAP1 SSTORE POP JUMP JUMPDEST PUSH1 0x0 PUSH1 0x6 SLOAD SWAP1 POP SWAP1 JUMP JUMPDEST PUSH1 0x0 DUP2 SWAP1 POP SWAP2 SWAP1 POP JUMP JUMPDEST PUSH1 0x0 DUP2 SWAP1 POP SWAP2 SWAP1 POP JUMP JUMPDEST PUSH1 0x0 PUSH1 0x3 SLOAD DUP3 PUSH2 0x6B8 SWAP2 SWAP1 PUSH2 0x813 JUMP JUMPDEST PUSH1 0xE DUP2 SWAP1 SSTORE POP PUSH1 0x0 PUSH2 0x3E8 PUSH1 0xE SLOAD PUSH2 0x6D0 SWAP2 SWAP1 PUSH2 0x898 JUMP JUMPDEST SWAP1 POP PUSH1 0x0 PUSH2 0x3E8 PUSH1 0xE SLOAD PUSH2 0x6E4 SWAP2 SWAP1 PUSH2 0x898 JUMP JUMPDEST SWAP1 POP PUSH1 0x4 SLOAD DUP2 DUP4 PUSH1 0xE SLOAD PUSH2 0x6F8 SWAP2 SWAP1 PUSH2 0x813 JUMP JUMPDEST PUSH2 0x702 SWAP2 SWAP1 PUSH2 0x813 JUMP JUMPDEST PUSH2 0x70C SWAP2 SWAP1 PUSH2 0x813 JUMP JUMPDEST PUSH1 0xF DUP2 SWAP1 SSTORE POP PUSH1 0xF SLOAD SWAP3 POP POP POP SWAP2 SWAP1 POP JUMP JUMPDEST PUSH1 0x0 DUP2 SWAP1 POP SWAP2 SWAP1 POP JUMP JUMPDEST PUSH2 0x731 DUP2 PUSH2 0x71E JUMP JUMPDEST DUP3 MSTORE POP POP JUMP JUMPDEST PUSH1 0x0 PUSH1 0x20 DUP3 ADD SWAP1 POP PUSH2 0x74C PUSH1 0x0 DUP4 ADD DUP5 PUSH2 0x728 JUMP JUMPDEST SWAP3 SWAP2 POP POP JUMP JUMPDEST PUSH1 0x0 DUP1 REVERT JUMPDEST PUSH2 0x760 DUP2 PUSH2 0x71E JUMP JUMPDEST DUP2 EQ PUSH2 0x76B JUMPI PUSH1 0x0 DUP1 REVERT JUMPDEST POP JUMP JUMPDEST PUSH1 0x0 DUP2 CALLDATALOAD SWAP1 POP PUSH2 0x77D DUP2 PUSH2 0x757 JUMP JUMPDEST SWAP3 SWAP2 POP POP JUMP JUMPDEST PUSH1 0x0 PUSH1 0x20 DUP3 DUP5 SUB SLT ISZERO PUSH2 0x799 JUMPI PUSH2 0x798 PUSH2 0x752 JUMP JUMPDEST JUMPDEST PUSH1 0x0 PUSH2 0x7A7 DUP5 DUP3 DUP6 ADD PUSH2 0x76E JUMP JUMPDEST SWAP2 POP POP SWAP3 SWAP2 POP POP JUMP JUMPDEST PUSH32 0x4E487B7100000000000000000000000000000000000000000000000000000000 PUSH1 0x0 MSTORE PUSH1 0x11 PUSH1 0x4 MSTORE PUSH1 0x24 PUSH1 0x0 REVERT JUMPDEST PUSH1 0x0 PUSH2 0x7EA DUP3 PUSH2 0x71E JUMP JUMPDEST SWAP2 POP PUSH2 0x7F5 DUP4 PUSH2 0x71E JUMP JUMPDEST SWAP3 POP DUP3 DUP3 LT ISZERO PUSH2 0x808 JUMPI PUSH2 0x807 PUSH2 0x7B0 JUMP JUMPDEST JUMPDEST DUP3 DUP3 SUB SWAP1 POP SWAP3 SWAP2 POP POP JUMP JUMPDEST PUSH1 0x0 PUSH2 0x81E DUP3 PUSH2 0x71E JUMP JUMPDEST SWAP2 POP PUSH2 0x829 DUP4 PUSH2 0x71E JUMP JUMPDEST SWAP3 POP DUP3 PUSH32 0xFFFFFFFFFFFFFFFFFFFFFFFFFFFFFFFFFFFFFFFFFFFFFFFFFFFFFFFFFFFFFFFF SUB DUP3 GT ISZERO PUSH2 0x85E JUMPI PUSH2 0x85D PUSH2 0x7B0 JUMP JUMPDEST JUMPDEST DUP3 DUP3 ADD SWAP1 POP SWAP3 SWAP2 POP POP JUMP JUMPDEST PUSH32 0x4E487B7100000000000000000000000000000000000000000000000000000000 PUSH1 0x0 MSTORE PUSH1 0x12 PUSH1 0x4 MSTORE PUSH1 0x24 PUSH1 0x0 REVERT JUMPDEST PUSH1 0x0 PUSH2 0x8A3 DUP3 PUSH2 0x71E JUMP JUMPDEST SWAP2 POP PUSH2 0x8AE DUP4 PUSH2 0x71E JUMP JUMPDEST SWAP3 POP DUP3 PUSH2 0x8BE JUMPI PUSH2 0x8BD PUSH2 0x869 JUMP JUMPDEST JUMPDEST DUP3 DUP3 DIV SWAP1 POP SWAP3 SWAP2 POP POP JUMP JUMPDEST PUSH1 0x0 PUSH2 0x8D4 DUP3 PUSH2 0x71E JUMP JUMPDEST SWAP2 POP PUSH2 0x8DF DUP4 PUSH2 0x71E JUMP JUMPDEST SWAP3 POP DUP2 PUSH32 0xFFFFFFFFFFFFFFFFFFFFFFFFFFFFFFFFFFFFFFFFFFFFFFFFFFFFFFFFFFFFFFFF DIV DUP4 GT DUP3 ISZERO ISZERO AND ISZERO PUSH2 0x918 JUMPI PUSH2 0x917 PUSH2 0x7B0 JUMP JUMPDEST JUMPDEST DUP3 DUP3 MUL SWAP1 POP SWAP3 SWAP2 POP POP JUMP INVALID LOG2 PUSH5 0x6970667358 0x22 SLT KECCAK256 0x2C 0xED SWAP8 0xFC EXP MSIZE 0xD7 0xFC 0x49 0xFB SHR TIMESTAMP 0x1E 0xC2 0xAB PUSH6 0x962C9724DD15 0x2A ORIGIN 0xAA 0xC9 JUMP 0xC4 MULMOD PC CALLDATASIZE PUSH15 0x64736F6C634300080B003300000000 "
		},
		"gasEstimates": {
			"creation": {
				"codeDepositCost": "478600",
				"executionCost": "infinite",
				"totalCost": "infinite"
			},
			"external": {
				"gatherDeposit()": "infinite",
				"getBallance_fairtoshi_provider()": "2437",
				"getBallance_fairtoshi_seeker()": "2459",
				"getBallance_reputoshi_provider()": "2504",
				"getBallance_reputoshi_seeker()": "2438",
				"getBallance_sharetoshi_provider()": "2503",
				"getBallance_sharetoshi_seeker()": "2547",
				"getCalculatedDeposit()": "2526",
				"getTotalDepositActual()": "2481",
				"get_SHRTotalSupply()": "2460",
				"performPayment()": "infinite",
				"transactTokens(uint256)": "infinite"
			},
			"internal": {
				"burnTokens(uint256)": "28",
				"calculateDeposit(uint256)": "infinite",
				"mintTokens(uint256)": "28"
			}
		},
		"methodIdentifiers": {
			"gatherDeposit()": "2c4b9652",
			"getBallance_fairtoshi_provider()": "7467579b",
			"getBallance_fairtoshi_seeker()": "c3a249bc",
			"getBallance_reputoshi_provider()": "399b22a8",
			"getBallance_reputoshi_seeker()": "06ce6195",
			"getBallance_sharetoshi_provider()": "ec571cec",
			"getBallance_sharetoshi_seeker()": "fba785a5",
			"getCalculatedDeposit()": "451e04a1",
			"getTotalDepositActual()": "e7c8b9e1",
			"get_SHRTotalSupply()": "0bf9a6f2",
			"performPayment()": "f4d992f0",
			"transactTokens(uint256)": "4ccd26ab"
		}
	},
	"abi": [
		{
			"inputs": [],
			"name": "gatherDeposit",
			"outputs": [],
			"stateMutability": "payable",
			"type": "function"
		},
		{
			"inputs": [],
			"name": "getBallance_fairtoshi_provider",
			"outputs": [
				{
					"internalType": "uint256",
					"name": "",
					"type": "uint256"
				}
			],
			"stateMutability": "view",
			"type": "function"
		},
		{
			"inputs": [],
			"name": "getBallance_fairtoshi_seeker",
			"outputs": [
				{
					"internalType": "uint256",
					"name": "",
					"type": "uint256"
				}
			],
			"stateMutability": "view",
			"type": "function"
		},
		{
			"inputs": [],
			"name": "getBallance_reputoshi_provider",
			"outputs": [
				{
					"internalType": "uint256",
					"name": "",
					"type": "uint256"
				}
			],
			"stateMutability": "view",
			"type": "function"
		},
		{
			"inputs": [],
			"name": "getBallance_reputoshi_seeker",
			"outputs": [
				{
					"internalType": "uint256",
					"name": "",
					"type": "uint256"
				}
			],
			"stateMutability": "view",
			"type": "function"
		},
		{
			"inputs": [],
			"name": "getBallance_sharetoshi_provider",
			"outputs": [
				{
					"internalType": "uint256",
					"name": "",
					"type": "uint256"
				}
			],
			"stateMutability": "view",
			"type": "function"
		},
		{
			"inputs": [],
			"name": "getBallance_sharetoshi_seeker",
			"outputs": [
				{
					"internalType": "uint256",
					"name": "",
					"type": "uint256"
				}
			],
			"stateMutability": "view",
			"type": "function"
		},
		{
			"inputs": [],
			"name": "getCalculatedDeposit",
			"outputs": [
				{
					"internalType": "uint256",
					"name": "",
					"type": "uint256"
				}
			],
			"stateMutability": "view",
			"type": "function"
		},
		{
			"inputs": [],
			"name": "getTotalDepositActual",
			"outputs": [
				{
					"internalType": "uint256",
					"name": "",
					"type": "uint256"
				}
			],
			"stateMutability": "view",
			"type": "function"
		},
		{
			"inputs": [],
			"name": "get_SHRTotalSupply",
			"outputs": [
				{
					"internalType": "uint256",
					"name": "",
					"type": "uint256"
				}
			],
			"stateMutability": "view",
			"type": "function"
		},
		{
			"inputs": [],
			"name": "performPayment",
			"outputs": [],
			"stateMutability": "payable",
			"type": "function"
		},
		{
			"inputs": [
				{
					"internalType": "uint256",
					"name": "transactionAmount",
					"type": "uint256"
				}
			],
			"name": "transactTokens",
			"outputs": [
				{
					"internalType": "uint256",
					"name": "",
					"type": "uint256"
				}
			],
			"stateMutability": "nonpayable",
			"type": "function"
		}
	]
}